:0400000080314528DE
:100008007E1480314E01161E0A280B2813280C1E58
:100018000E280F28132884311824803143280B1FF9
:1000280016281728432840018C1A1B281C28222828
:100038000E1D1F2820282228FD012A287C080319C4
:10004800262827282A28FD010130FC004E019A1C89
:100058002E282F283728901C322833283728833118
:100068005023803143289A1E3A283B284328901E63
:100078003E283F2843288231DF22803143287E10E2
:10008800090080314728FC01FD013C308400003024
:100098008500153084318C2480317E1040018331F5
:1000A800BD2B41014B08A1004A08A0001430A20052
:1000B8000030A300833180238031410121084001B1
:1000C800CD00410120084001CC004C084101CC0082
:1000D80040014D084101CD00CE01CF014F08803AC3
:1000E800D00040014708803A41015002031D8C2886
:1000F8004001460841014E02031D8C284001450875
:1001080041014D02031D8C284001440841014C0265
:1001180003188F289028932840011A15BD284001FC
:100128004C084101CC0040014D084101CD00CE01F1
:10013800CF0140014708803A4101D0004F08803A7A
:1001480050024001031DB82841014E0840014602F3
:10015800031DB82841014D0840014502031DB82878
:1001680041014C08400144020318BB28BC28BD28A3
:100178001A114C084101CC0040014D084101CD0045
:10018800CE01CF014001470841014F06031DDC287D
:100198004001460841014E06031DDC284001450880
:1001A80041014D06031DDC284001440841014C066D
:1001B8000319DF28E028F428843192248031003A9A
:1001C800031DE728E828F02898304101C8003A3094
:1001D800C9008331A02380310130FD000030F828A8
:1001E800FD010130FC0001300800B130860000300C
:1001F800870008304101B00000301E00B00B012913
:1002080020082104220423042404250426042704A6
:1002180003190F2910296A290130B9001D29A035B1
:10022800A10DA20DA30DA40DA50DA60DA70D0130BE
:10023800B907A71F202921291329B135B20DB30DFC
:10024800B40DB50DB60DB70DB80D27082F02031D57
:10025800472926082E02031D472925082D02031DBC
:10026800472924082C02031D472923082B02031DB4
:10027800472922082A02031D472921082902031DAC
:10028800472920082802031C4A294B295C292008F1
:10029800A8022108A93B2208AA3B2308AB3B240853
:1002A800AC3B2508AD3B2608AE3B2708AF3B3114D5
:1002B800A736A60CA50CA40CA30CA20CA10CA00C90
:1002C8000130B902031D69296A2921293108A000D2
:1002D8003208A1003308A2003408A3003508A4009E
:1002E8003608A5003708A6003808A70008007130AE
:1002F8008600003087000830F00000301E00F00B48
:10030800822940012008210422042304240425040E
:1003180026042704031991299229EC290130F900B0
:100328009F29A035A10DA20DA30DA40DA50DA60D05
:10033800A70D0130F907A71FA229A3299529F1358F
:10034800F20DF30DF40DF50DF60DF70DF80D270868
:100358002F02031DC92926082E02031DC9292508B5
:100368002D02031DC92924082C02031DC9292308AD
:100378002B02031DC92922082A02031DC9292108A5
:100388002902031DC92920082802031CCC29CD29CC
:10039800DE292008A8022108A93B2208AA3B230835
:1003A800AB3B2408AC3B2508AD3B2608AE3B2708F1
:1003B800AF3B7114A736A60CA50CA40CA30CA20C79
:1003C800A10CA00C0130F902031DEB29EC29A3298B
:1003D8007108A0007208A1007308A2007408A300A5
:1003E8007508A4007608A5007708A6007808A70075
:1003F80008004B01921300304101A7000030A6000D
:100408000030A5000030A4000130A300E830A200AD
:100418004730A100E130A0003A08BC003B08BD000D
:10042800BE01BF01C001C101C201C30115304101B4
:10043800BC35BD0DBE0DBF0DC00DC10DC20DC30D28
:10044800890B1B2A41014308AF004208AE0041084E
:10045800AD004008AC003F08AB003E08AA003D08CC
:10046800A9003C08A8008031F92081314101230806
:10047800C7002208C6002108C5002008C400440897
:10048800BC004508BD004608BE004708BF00103044
:10049800BF36BE0CBD0CBC0C890B4C2A3C084B016A
:1004A800910041014408BC004508BD004608BE0053
:1004B8004708BF000830BF36BE0CBD0CBC0C890B0A
:1004C8005F2A3C084B019000410144084B018F0012
:1004D800921708004B01921300304001A70000302A
:1004E800A6000030A5000030A4000130A300E830C9
:1004F800A2004730A100E130A0007A08B0007B08D4
:10050800B100B201B301B401B501B601B7011530AC
:100518004001B035B10DB20DB30DB40DB50DB60D2A
:10052800B70D890B8C2A40013708AF003608AE009A
:100538003508AD003408AC003308AB003208AA0017
:100548003108A9003008A80081317B21823140019F
:100558002308BB002208BA002108B9002008B80007
:100568003808B0003908B1003A08B2003B08B300B7
:100578001030B336B20CB10CB00C890BBD2A300860
:100588004B01910040013808B0003908B1003A0821
:10059800B2003B08B3000830B336B20CB10CB00C53
:1005A800890BD02A30084B019000400138084B01D4
:1005B8008F00921708004E01901240013F08430235
:1005C800031DF02A3E084202031DF02A3D0841029D
:1005D800031DF02A3C0840020318F32AF42A1D2BB5
:1005E800E830C0070330C13D0030C23D0030C33D94
:1005F80043083F02031D0A2B42083E02031D0A2B33
:1006080041083D02031D0A2B40083C0203180D2B2C
:100618000E2B162B3F08C3003E08C2003D08C10040
:100628003C08C0004108FB004008FA0082316E22F5
:1006380082310800400198019A013F309200393018
:10064800940039307E01CE000730B8003330B9004D
:10065800CF01BA01D0013730BB003F30D1003F3065
:10066800BC003F30D2003F12BF123E16BE163D12EC
:10067800BD1298304101A0000430A10084317A24D1
:10068800833197304101A0000430A10084317124E6
:1006980083314E01161608004E0190107D0803198B
:1006A800562B572B7D2B031040019A1C031403185B
:1006B8005E2B612B40019A14632B40019A10013084
:1006C800C8070030C93DCA3DCB3D0E196C2B6D2BB8
:1006D800742B0130C4070030C53DC63DC73D7F2B94
:1006E800FF30C407FF30C53DFF30C63DFF30C73D72
:1006F8007F2B40019A1008004101A401A501201C8C
:10070800862B872B8B2B2208A4072308A53D0130B5
:10071800A235A30D890B8C2B0130A136A00C890BB7
:10072800912B20082104031D9A2B9B2B832B250832
:10073800A1002408A0000800410148084001BC00AD
:10074800410149084001BD00BE01BF010030C3009E
:100758000030C2002730C1001030C00041084101FC
:10076800BB00400140084101BA008131FD218331BD
:1007780008008431052483318B170B177C08031D6F
:10078800C62BC72BC22BE8304101CA000330CB006F
:10079800803155208331003A0319D32BD42BC22B37
:1007A800FD01C22B80314528043045019C009B0186
:1007B8009D016030990098014E0190129A16003000
:1007C8004101A0000030A10084315F248331C03092
:1007D80045019A0008000930450190008F019101F8
:1007E8008D018C014E0190109A1400304101A00037
:1007F8000030A100843168248331803045018E00A7
:10080800080084315524843183311E238431843196
:10081800832484318431472484318331D82384313B
:100828008331EF23843108007E013F1E1C2C1D2CD0
:10083800202C8431382484317E01BF1E242C252CA1
:10084800282C843129248431080040015308540499
:1008580003192F2C302C352C54088A0053080A0011
:1008680084317E01BF12080040015508560403195F
:100878003E2C3F2C442C56088A0055080A00843127
:100888007E013F12080001304B01920093018E0156
:100898008D018C0191010130900089308F009213F5
:1008A80008004F0196019701980199019A019B014F
:1008B8009C019D010800410121084001D20041012D
:1008C80020084001D1000800410121084001D8005A
:1008D800410120084001D7000800410121084001DA
:1008E800D400410120084001D3000800410121083B
:1008F8004001D600410120084001D50008006030C1
:1009080051018D008F01910106309300920108007A
:10091800640080010131890B8D2C00344B01120DCC
:0A092800120D013908000800080054
:020000040001F9
:0A000E00EC3FFF3F9F3FFF3FFF3F25
:00000001FF
